:020000040800F2
:10000000E8060020C5010008D90E0008550B0008BD
:10001000D50E000811060008F90E000800000000C7
:10002000000000000000000000000000E10E0008D9
:100030001506000800000000DD0E0008E50E0008AF
:10004000DF010008DF010008DF010008DF01000810
:10005000DF010008DF010008DF010008DF01000800
:10006000DF010008DF010008DF010008DF010008F0
:10007000DF010008DF010008DF010008DF010008E0
:10008000DF010008DF010008DF010008DF010008D0
:10009000DF010008DF010008DF010008DF010008C0
:1000A000DF010008DF010008DF010008DF010008B0
:1000B000ED0E0008DF010008DF010008DF01000885
:1000C000DF010008DF010008DF010008DF01000890
:1000D000DF010008DF010008DF010008DF01000880
:1000E000DF010008DF010008DF01000800F002F86E
:1000F00000F058F814A696E8000CB244B344DA4570
:1001000001D100F04FF8BAE80F000FA696E83000D2
:10011000A5EB040504EB0607AAEB0704A7F101070A
:100120004FEA15154FEA3414A4F10104AC4201D38F
:1001300000F038F813F0010F18BFFB1A43F0010369
:1001400000F001F8DBE71847D0110000F0110000C3
:10015000103A24BF78C878C1FAD8520724BF30C8F3
:1001600030C144BF04680C60704700007047000055
:100170000023002400250026103A28BF78C1FBD8B0
:10018000520728BF30C148BF0B607047642900F098
:100190009D80732900F0FD81002070471FB51FBDB1
:1001A00010B510BD00F0F9F91146FFF7F7FF00F0A8
:1001B000A5FE00F017FA03B4FFF7F2FF03BC00F04E
:1001C0001FFA00000948804709480047FEE7FEE79C
:1001D000FEE7FEE7FEE7FEE7FEE7FEE7FEE7FEE7F7
:1001E00004480549054A064B70470000E90E00081F
:1001F000ED000008E8000020E8060020E8020020EA
:10020000E80200200FB41CB5074B06AA7B446946E0
:100210000090059800F093F90020694600F0A2F9DB
:100220001CBC5DF814FB00005503000070B50446CB
:1002300085690068C10601D5302600E02026C00788
:1002400007D070BDD4E9012130469047206A401C98
:1002500020626D1EF6D570BD70B5044685690078C4
:10026000C00707D170BDD4E9012120209047206A42
:10027000401C20626D1EF6D570BD70B50C4605465B
:10028000012A05D02878800600D5EA69002302E01B
:10029000012305E05B1C934202D2E05C0028F9D107
:1002A000A869E618C01AA861286A18442862284676
:1002B000FFF7BCFF04E0D5E9012114F8010B9047DA
:1002C000B442F8D32846FFF7C7FF70BD2DE9F041CF
:1002D0000646002410687529314616A510D0AFF3E4
:1002E0000080002802DA404213A507E031688A073F
:1002F00001D512A502E0490704D511A5012401E0AA
:10030000AFF3008000210A2206F1240709E0B0FBC8
:10031000F2FCB0FBF2F302FB1C00303078541846BC
:10032000491C0028F3D123462A463046BDE8F04157
:1003300000F0A7B8000000002D0000002B00000016
:10034000200000002DE9F05F894604464FF0000AC6
:10035000DFF824B1FB44C0F820A02046E1688847BC
:1003600000287DD0252806D0D4E901219047206AB5
:10037000401C2062F1E700255F462046E16888477F
:100380002028064607DB312E05D2B81910F8200CBC
:1003900008B10543F1E7A80701D525F00405C4F825
:1003A0001CA00027C4F818A02A2E09D0304600F05F
:1003B00081FF38B304EB8708303EC8F8186019E0B5
:1003C00059F8041B204604EB87029161E1688847D5
:1003D000012F064618D1E069002820DA25F0200513
:1003E0001DE0D8F8180000EB800006EB4000303824
:1003F000C8F818002046E1688847064600F05AFF12
:100400000028EED1012F0AD02E2E08D12046E16817
:1004100088477F1C0646022F45F02005C4DBA069F3
:10042000002803DA404245F00105A061E80701D049
:1004300025F01005A6B1A6F14100192802D82036F2
:1004400045F400654A463146204625604D46FFF793
:100450009DFE60B1012807D0ED1D25F0070000E0EA
:1004600007E000F1080978E705F1040975E730466F
:100470007AE7206ABDE8F09F6A0F00007047704776
:1004800070472DE9F0470D4699469246044600F123
:1004900024080168880604D5E06921F01001216074
:1004A00000E00120A84201DD471B00E00027A16910
:1004B0007A1902EB0900081AA0612078C00602D45C
:1004C0002046FFF7B3FE002608E0D4E901211AF820
:1004D00006009047206A401C761C20624E45F4DBE3
:1004E0002078C0060AD52046FFF7A0FE06E0D4E932
:1004F000012130209047206A401C2062381EA7F15D
:100500000107F4DC07E0D4E9012118F80500904761
:10051000206A401C2062281EA5F10105F3DC20465C
:10052000FFF79AFE2078000602D50220BDE8F0878A
:100530000120FBE701694A1C02610878704700B599
:100540008FB0CDE901310021059105497944CDE90C
:10055000031011466846FFF7F5FE0FB000BD00001E
:10056000E5FFFFFF0A6802F8010B0A60704710B54B
:10057000436913B1AFF3008001E0FFF77EFE012075
:1005800010BD127800F124010A7000224A70012285
:10059000EDE711684FF0FF32E9E7754600F02CF8FF
:1005A000AE4605006946534620F00700854618B060
:1005B00020B5FFF715FEBDE820404FF000064FF0D4
:1005C00000074FF000084FF0000BAC46ACE8C00944
:1005D000ACE8C009ACE8C009ACE8C00921F00701EB
:1005E0008D46704710B50446AFF300802046BDE845
:1005F0001040FFF7E0BD00000048704718000020E1
:1006000001491820ABBEFEE726000200704700003B
:10061000FEE7000070470000B0B5044600F024F982
:10062000054640F20800C2F200000078611C18BFC5
:10063000044400BF00F018F9401BA042FAD3B0BD3B
:100640002DE9F04F82B00E68002E00F0FD8041F2DF
:100650000042C4F20102042340F2004E904208BF5F
:1006600003234FF6FF7CC4F2010E00930024012304
:10067000C1F2100C4FF0000A4FF000094BE000BF30
:1006800041F20002C4F20102009F904208BF02271B
:1006900004F00C030F229A402BEA020207FA03F33C
:1006A0004FEA9A051A4346F825204E6840F20C4559
:1006B000F202DEF8082054BF22EA080242EA0802E9
:1006C000C4F20105CEF808202A68B30254BF22EA1A
:1006D000080242EA08022A60B303DEF8042054BF8D
:1006E00022EA080242EA0802F303CEF80420DEF808
:1006F00000204FF0010354BF22EA080242EA080238
:10070000CEF800200E680AF1010A36FA0AF204F166
:10071000040400F0998003FA0AFB16EA0B08F1D0F2
:100720004E68664512DC122E56D8DFE806F0350B0F
:100730004D4955555555555555555555555555458D
:10074000510000BFD1F80C9046E000BF4FF6FF7299
:10075000C1F2210296420FDC0022C1F21102964240
:100760001AD00022C1F21202964215D00022C1F224
:100770002102964210D02FE00022C1F222029642BE
:100780000AD00022C1F23102964205D00022C1F205
:100790003202964220D100BF8A684AB1012A14BFB2
:1007A000C0F814B0C0F810B04FF0080914E000BF52
:1007B0004FF0040910E000BFCA6802F104090BE021
:1007C0004FF0000908E000BFCA6802F1080903E021
:1007D000CA6802F10C0900BF02462646B8F5807FC0
:1007E00024BF0432203E17680F25B54027EA0505CF
:1007F00009FA06F635431560CA79D2067FF582AF4D
:1008000041F21803C4F202031A68AEF57E7642F094
:1008100001021A601A6802F001020192019A2AF09C
:10082000030256F802B040F60002C4F20102904200
:1008300008D040F60042C4F2010290427FF420AF9B
:10084000012725E7002723E702B0BDE8F08F00006D
:100850008068084018BF012070470000002A08BFC8
:10086000090401617047000040F2E000C2F200009C
:100870000068704740F2080040F2E001C2F2000058
:10088000C2F2000100780A68104408607047000056
:1008900080B542F20000C4F20200016841F010018C
:1008A0000160032000F07AF80F2000F005F800F056
:1008B00027F8002080BD000070B540F20806C2F2A3
:1008C000000640F210013278C2F200014FF47A7350
:1008D0000968B3FBF2F20446B1FBF2F1084600F0FE
:1008E0006DF80F2C4FF0010508D838B94FF0FF30E4
:1008F00021460022002500F025F87460284670BDCE
:1009000082B041F21800C4F202000168022241F0F4
:1009100001010160016801F0010101910199416843
:1009200041F080514160406800F080500090009894
:100930000420C4F20100016862F31A61016002B090
:100940007047000010B54EF60C5CCEF2000CDCF8DF
:100950000030C3F3022E8EF00704042C28BF0424B9
:10096000BEF103034FF0FF3E0EFA04F438BF00233C
:10097000A14399400EFA03F39A43114300F00F028A
:1009800000F160430901043A03F56443624400281E
:1009900048BF02F10C03197010BD00004EF60C5157
:1009A000CEF200010A684FF6FF031A4060F30A22F4
:1009B00042F0806040F0FD7008607047411E0020EA
:1009C000B0EB116F1CBF012070474EF21002CEF247
:1009D000000251604EF62351CEF20001F0230B705D
:1009E0000721906011607047704700007047000059
:1009F0007047000070B504460068C5680669B10715
:100A000016D515F0020113D06FF00201016101212A
:100A100021778069800703D02046FFF7E9FF05E0D2
:100A2000204600F08FF8204600F08EF80020207756
:100A3000700719D515F0040016D020686FF0040176
:100A4000016102212177806910F4407F04D02046A3
:100A5000FFF7CEFF06E000BF204600F073F8204607
:100A600000F072F800202077300717D515F0080045
:100A700014D020686FF00801016104212177C0695A
:100A8000800703D02046FFF7B3FF05E0204600F0C3
:100A900059F8204600F058F800202077F00619D5C4
:100AA00015F0100016D020686FF0100101610821C8
:100AB0002177C06910F4407F04D02046FFF798FFEB
:100AC00006E000BF204600F03DF8204600F03CF86C
:100AD00000202077F00718BF15F0010002D1300682
:100AE00009D412E020686FF001010161204600F096
:100AF0002DF8300609D515F0800006D020686FF07B
:100B0000800101612046FFF76FFF700609D515F0DF
:100B1000400006D020686FF040010161204600F0DF
:100B200017F8B00658BF70BD15F0200008D0216836
:100B30006FF0200220460A61BDE87040FFF756BF03
:100B400070BD000070470000704700007047000053
:100B500070470000FEE7000080B50120002100F092
:100B6000FDF80A20BDE88040FFF756BD10B56420AF
:100B7000FFF752FD40F60044C4F201042046012173
:100B80000022FFF76BFE204602210022FFF766FEDF
:100B900020464FF480610122FFF760FE20464FF4AB
:100BA00000610122FFF75AFE20464FF480510022D7
:100BB000FFF754FE20464FF400510022FFF74EFE8F
:100BC000204602210122FFF749FE0220FFF724FD03
:100BD000204602210022FFF741FE0220FFF71CFD04
:100BE0000A20FFF719FD20464FF480610122FFF72C
:100BF00035FE20464FF400610122FFF72FFE20460C
:100C00004FF480510022FFF729FE20464FF4005197
:100C10000022FFF723FE204602210122FFF71EFEDD
:100C20000220FFF7F9FC204602210022FFF716FE02
:100C30000220FFF7F1FC0A20FFF7EEFC20464FF4FC
:100C400080610122FFF70AFE20464FF40061012275
:100C5000FFF704FE20464FF480510022FFF7FEFD0F
:100C600020464FF400510022FFF7F8FD20460221F4
:100C70000122FFF7F3FD0220FFF7CEFC2046022100
:100C80000022FFF7EBFD0220FFF7C6FC0A20FFF76A
:100C9000C3FC20464FF480610022FFF7DFFD2046B1
:100CA0004FF400610122FFF7D9FD20464FF4805137
:100CB0000022FFF7D3FD20464FF400510022FFF73A
:100CC000CDFD204602210122FFF7C8FD0220FFF7DB
:100CD000A3FC204602210022FFF7C0FD0220FFF7FF
:100CE0009BFC0A20FFF798FC2820002100F036F832
:100CF0000520FFF791FC0C20002100F02FF80520C3
:100D0000FFF78AFC0620002100F028F80520FFF7F5
:100D100083FC0120002100F021F80A20BDE81040EA
:100D2000FFF77ABC10B51446A0F14002002908BFB5
:100D300080F08002D0B2002100F010F82078002866
:100D400008BF10BD013C00BFC0B2012100F006F891
:100D5000A07801340028F7D110BD0000B0B540F6EE
:100D60000044C4F201040A460546002920464FF01B
:100D7000010118BF0122FFF771FDC5F300122046E3
:100D80004FF48061FFF76AFDC5F3401220464FF42F
:100D90000061FFF763FDC5F3801220464FF48051D8
:100DA000FFF75CFDEA0920464FF40051FFF756FDBE
:100DB000204602210122FFF751FD0220FFF72CFC03
:100DC000204602210022FFF749FD0220FFF724FC04
:100DD00005F0010220464FF48061FFF73FFDC5F3A7
:100DE000400220464FF40061FFF738FDC5F3800252
:100DF00020464FF48051FFF731FDC5F3C002204675
:100E00004FF40051FFF72AFD204602210122FFF78F
:100E100025FD0220FFF700FC204602210022FFF7FB
:100E20001DFD0220BDE8B040FFF7F6BB2DE9F047FD
:100E300086B0002741F21800CDE90477CDE90277AA
:100E4000C4F20200016840F6000A41F004010160AA
:100E50000168C4F2010A01F00401019101990168DD
:100E60000AF5806541F008010160006843F603411E
:100E700000F00800019001982846002243F603483C
:100E8000FFF7ECFC50464FF4807100224FF480795C
:100E9000FFF7E4FC0F2002AECDE902070124504623
:100EA00031460494FFF7CCFBCDE902844FF00208F1
:100EB000284631460497CDF81480FFF7C1FB504611
:100EC0003146CDE90294CDE90478FFF7B9FB06B0CD
:100ED000BDE8F087FEE70000FEE700007047000075
:100EE00070470000FFF7C6BC7047000040F2980052
:100EF000C2F20000FFF77EBDFEE7000088B040F6BA
:100F00000004C4F20104FFF7C3FCFFF78FFF0027C2
:100F100041F21806CDE90677CDE90477C4F202065E
:100F2000306804F5806540F008003060306843F6B2
:100F3000034100F00800039003982846002243F67E
:100F40000348FFF78BFCCDF810804FF001094FF0FC
:100F5000020804A92846CDE90597CDF81C80FFF7C3
:100F60006FFBCDE90677CDE90477306804A940F03E
:100F700004003060306800F00400039003980F20F4
:100F800004902046CDF81890FFF75AFBCDE906777C
:100F9000CDE9047730684FF4807140F00400306090
:100FA0003068002200F004000390039820464FF4BC
:100FB0008075FFF753FC04A92046CDE90459CDE91B
:100FC0000678FFF73DFBFFF7D1FDFFF7C5FDFFF703
:100FD0004BFC40F27808C2F20008C8F80400FFF7A2
:100FE00043FC40F20009C2F200090FF28C2A0FF212
:100FF0009C2BC8F8080002E06420FFF70DFB204698
:101000000121FFF725FC38B91420FFF705FB204626
:101010000121FFF71DFCB8B320460221FFF718FCA1
:1010200038B91420FFF7F8FA20460221FFF710FC28
:10103000D0B320460421FFF70BFC40B91420FFF782
:10104000EBFA20460421FFF703FC00284CD0204691
:101050000821FFF7FDFB00286AD11420FFF7DCFA16
:1010600020460821FFF7F4FB002861D12046082123
:10107000FFF7EEFB0028F9D099F80400B0FA80F0F1
:10108000400989F8040048E020460121FFF7E0FB11
:101090000028F9D098F802000130C1B2052988BFB4
:1010A000002088F8020038E020460221FFF7D0FB3C
:1010B0000028F9D098F802000138C0B204282CD8D2
:1010C00041F2E021C0F6000151F8201041F2D42392
:1010D0000A78C0F6000333F810000132B2FBF0F3D7
:1010E00003FB102018E000BF20460421FFF7B0FBEF
:1010F0000028F9D098F802000138C0B204280CD8B2
:1011000041F2E021C0F6000151F8201056A30A7800
:10111000185C002A18BF501E0870002088F80100D3
:1011200088F8030020464FF480710022FFF796FBF9
:1011300098F80200002845D1FFF796FBD8F8041074
:10114000401AB0F57A7F3DD301F57A7099F8011015
:10115000C8F80400481CC1B23C2989F801000DD32D
:1011600098F800100020013189F8010088F800107B
:10117000CAB23C2A07D299F800200CE098F8001077
:10118000CAB23C2AF7D399F800200021013288F82E
:10119000001089F80020D3B2182B24BF002289F850
:1011A000002099F804306BB199F80230D2B29A421B
:1011B00008D199F80320C9B2914208BF5FEA0060E4
:1011C0004ED000BF98F80100B0B1FFF74DFBD8F842
:1011D0000810401AFA280FD3FFF746FB98F80310BF
:1011E000C8F80800B1FA81F0420920464FF4807136
:1011F00088F80320FFF732FB99F8040098F80030D4
:1012000099F8002099F8016000281AA518A008F1A3
:101210000C0708BF054638465146CDE90065FEF784
:10122000F1FF002000213A46FFF77CFD99F80220EB
:1012300099F8033038465946FEF7E4FF00200121B3
:101240003A46FFF76FFD98F8020005283FF6D4AE46
:1012500012A151F8202009200121FFF763FDCBE600
:10126000012088F80100B0E7173B3B173B00000066
:101270004F4646004F4E2000253032643A2530322A
:10128000643A253032642025730000004120253067
:1012900032643A2530326420000000000013000858
:1012A000051300080B13000811130008F4120008BE
:1012B000FA12000830380A2801D2012070470020B5
:1012C0007047040000080000000000000002000158
:1012D0000000100018003C003C0018003C0000001A
:1012E0000000002078000020010000200200002003
:1012F00003000020414C20482000414C204D20009C
:1013000052554E2000534554204800534554204D1B
:1013100000534554205300003813000800000020FB
:1013200018000000500100085013000818000020A9
:10133000D0060000700100080C370C01010000000D
:10134000010000001000000000127A000000000000
:04000005080000ED02
:00000001FF
